:020000040800F2
:1000000060140020090300088F3B000897330008A4
:100010008D3B0008EB050008794700080000000050
:10002000000000000000000000000000490200087D
:10003000050A000800000000A5020008AD3B00080A
:1000400023030008230300082303000823030008F8
:1000500023030008230300082303000823030008E8
:1000600023030008070A00080D0A000823030008FC
:100070009506000823030008A106000823030008D2
:1000800023030008230300082303000835060008A3
:10009000290600082303000823030008150A0008A6
:1000A0007D3C000823030008230300082303000805
:1000B000993C0008A53C0008B13C00082303000857
:1000C000230300082303000823030008913B0008D2
:1000D0002303000825440008230300083D440008CA
:1000E000230300082303000823030008D53C00086D
:1000F000E13C000823030008230300082303000851
:100100002303000823030008230300082303000837
:100110002303000823030008230300082303000827
:10012000AD060008B9060008C5060008D10600089B
:10013000230300082303000823030008890600089E
:100140007D0600082303000823030008230300089A
:1001500023030008DD060008E9060008254600081C
:1001600023030008230300082303000823030008D7
:1001700023030008230300082303000800000000F5
:10018000230300082303000800F002F800F04CF8F5
:100190000AA090E8000C82448344AAF10107DA45E2
:1001A00001D100F041F8AFF2090EBAE80F0013F0E8
:1001B000010F18BFFB1A43F0010318471C4D000044
:1001C0003C4D00000A4410F8014B14F00F0508BF25
:1001D00010F8015B240908BF10F8014B6D1E05D013
:1001E00010F8013B6D1E01F8013BF9D1641E03D0EC
:1001F000641E01F8015BFBD19142E4D3704700001B
:100200000023002400250026103A28BF78C1FBD81F
:10021000520728BF30C148BF0B6070471FB504F0BC
:10022000C5FC1FBD10B510BD00F0AAF91146FFF7BF
:10023000F5FF04F041FB00F0C8F903B4FFF7F2FF4B
:1002400003BC00F0CBF900002C4B19680868B0E83B
:10025000F04F80F30988BFF36F8F4FF0000080F3F9
:10026000118870470000000008480068006880F3AB
:1002700008884FF0000080F3148862B661B6BFF3BF
:100280004F8FBFF36F8F00DF00BF00BF08ED00E0AE
:10029000DFF80C00016841F470010160704700BF95
:1002A00088ED00E0EFF30980BFF36F8F134B1A68FE
:1002B0001EF0100F08BF20ED108A20E9F04F1060EB
:1002C00009B44FF0500080F31188BFF34F8FBFF394
:1002D0006F8F04F0D7FB4FF0000080F3118809BC4A
:1002E00019680868B0E8F04F1EF0100F08BFB0ECB6
:1002F000108A80F30988BFF36F8F704728000020B1
:10030000EFF305807047000009488047094800471F
:10031000FEE7FEE7FEE7FEE7FEE7FEE7FEE7FEE7B5
:10032000FEE7FEE704480549054A064B7047000012
:100330006D3C000889010008600E00206014002058
:10034000601000206010002053EA020C00F0698069
:100350002DE9F04B4FF00006002B1FBFB3FA83F5D9
:1003600003FA05F424FA05F65E4012BF1643B2FA0A
:1003700082F502FA05F4C5F120051EBF22FA05FC3C
:1003800044EA0C04203556EA044C4FEA144418BFE2
:10039000641C4FF000084FF00009904271EB030C11
:1003A00039D3002919BFB1FA81F701FA07F6B0FA7B
:1003B00080F700FA07F6C7F120071EBF20FA07FCF6
:1003C00046EA0C062037B6FBF4FCA7EB0507103F06
:1003D00007F01F0BCBF120060CFA0BFB2CFA06F6EC
:1003E00044BFB3460026202FA4BF5E464FF0000B4B
:1003F0005BEA060C08BF4FF0010B19EB0B09ABFBD6
:10040000027C48EB0608C01B06FB02CC0BFB03CCAE
:1004100071EB0C01C1E70B46024641464846BDE878
:10042000F08B13B54FF000004FF00001AFF30080E8
:10043000BDE81C407047032A40F2308010F0030CE6
:1004400000F0158011F8013BBCF1020F624498BF27
:1004500011F801CB00F8013B38BF11F8013BA2F1C4
:10046000040298BF00F801CB38BF00F8013B11F03F
:10047000030300F02580083AC0F0088051F8043BDF
:10048000083A51F804CBA0E80810F5E7121D5CBF4C
:1004900051F8043B40F8043BAFF30080D20724BF7F
:1004A00011F8013B11F801CB48BF11F8012B24BF13
:1004B00000F8013B00F801CB48BF00F8012B704762
:1004C00010B5203AC0F00B80B1E81850203AA0E8EF
:1004D0001850B1E81850A0E81850BFF4F5AF5FEA23
:1004E000027C24BFB1E81850A0E8185044BF18C9D6
:1004F00018C0BDE810405FEA827C24BF51F8043B7D
:1005000040F8043B08BF7047D20728BF31F8023BD0
:1005100048BF11F8012B28BF20F8023B48BF00F864
:10052000012B70474FF0000200B5134694469646E3
:10053000203922BFA0E80C50A0E80C50B1F12001F6
:10054000BFF4F7AF090728BFA0E80C5048BF0CC0A4
:100550005DF804EB890028BF40F8042B08BF704702
:1005600048BF20F8022B11F0804F18BF00F8012B74
:10057000704770477047704700487047FC0D002077
:100580007546FFF7F9FFAE4605006946534620F071
:100590000700854618B020B5FFF7C4FEBDE820402F
:1005A0004FF000064FF000074FF000084FF0000B2F
:1005B00021F00701AC46ACE8C009ACE8C009ACE8E2
:1005C000C009ACE8C0098D46704710B50446AFF3CA
:1005D00000802046BDE81040FFF72FBE01491820DB
:1005E000ABBEFEE7260002007047FEE700B58BB009
:1005F00000200121CDE906010590009001900290B4
:10060000039004900E20CDE908106946054800F0DB
:10061000D5FA0221034800F051FA024800F036FEF4
:100620000BB000BDC4010020014800F0C2BB0000B7
:10063000C4010020014800F0BCBB0000C401002040
:1006400000B58BB001220E2100200792CDE90510E4
:1006500003900490CDE90821009001900290694632
:10066000054800F0ABFA0221034800F027FA0248DF
:1006700000F00CFE0BB000BDEC010020014800F0C2
:1006800098BB0000EC010020014800F092BB000084
:10069000EC010020014800F087BE0000BC060020ED
:1006A000014800F081BE00001C070020014800F056
:1006B0007BBE0000C0020020014800F075BE0000B3
:1006C0007C070020014800F06FBE0000FC05002000
:1006D000014800F069BE000020030020014800F03E
:1006E00063BE0000DC070020014800F05DBE000092
:1006F0005C0600202DE9F04F85680024099E802DBE
:1007000018D0894DC563894D456490F83450012D4A
:1007100015D0012580F8345090F83550012D10D0B7
:10072000002180F834100224002180F83410204683
:10073000BDE8F08F4FF4807141650120F8E7022099
:10074000F6E7022580F835500025456505682F68D5
:1007500047F480272F6005682B6103685E6083681B
:10076000402B03682AD099600168CA60714D704EB1
:10077000704FDFF8BC81DFF8B891DFF8B8A1DFF87F
:10078000B4B1EA14DFF8A8E10168183630379302F3
:10079000A9F148090AF1600A0BF1180BAEF1300E0D
:1007A0004FF0006C41452DD9A94205D0494503D0F1
:1007B000514501D0B14205D1202220E09A60026863
:1007C000D160D3E759451AD0714518D0594D7835C5
:1007D000A94214D0564D3035A94210D0B9420BD0A1
:1007E000534A183A914207D0524A9032914203D06C
:1007F0004F4A4832914201D11A4600E062464C49C4
:100800004C392EE0DFF82C8108F1A80841452AD99F
:10081000A94205D0494503D0514501D0B14201D18B
:1008200020221CE059451AD0714518D0414D783529
:10083000A94214D03E4D3035A94210D0B9420BD058
:100840003B4A183A914207D03A4A9032914203D03B
:10085000374A4832914201D11A4600E06246344993
:1008600050390A605AE0DFF8CC8008F14808414569
:100870002AD9A94205D0494503D0514501D0B142FA
:1008800001D120221CE059451AD0714518D0294DBC
:100890007835A94214D0264D3035A94210D0B9423E
:1008A0000BD0234A183A914207D0224A9032914203
:1008B00003D01F4A4832914201D11A4600E06246F5
:1008C0001C491039CA6029E0A94205D0494503D026
:1008D000514501D0B14201D120221CE059451AD026
:1008E000714518D0134D7835A94214D0104D3035CC
:1008F000A94210D0B9420BD00D4A183A914207D004
:100900000C4A9032914203D0094A4832914201D1B7
:100910001A4600E06246074910398A6001680A6891
:1009200042F001020A60FFE625480008714800080D
:10093000586402401060024001681823CAB2103A9D
:10094000B2FBF3F2054B6FF30901032A9B5CC3650D
:1009500000D9091D8165084670470000B64B0008A4
:1009600010B5014600208B698A6A4FF0C07453B1FC
:10097000B3F5005F15D072B1012A0CD0022A0AD05B
:10098000032A09D104E01AB1012A06D0022A03D1B0
:10099000C96AC90100D5012010BDC96AA142FAD0B7
:1009A00010BD002AF7D0012AF2D0022AF3D0032A80
:1009B000F3D010BD30B50468256825F48025256086
:1009C000046863608368402B036803D09960006803
:1009D000C26030BD9A600068C16030BD01680A68BD
:1009E000D20604D5C968C90601D503F0DDBF70473A
:1009F00001680A68D20604D5C968C90601D503F0A2
:100A0000D3BF70477047082000F054BE102000F09C
:100A100051BE0000124800B5006887B0800514D5AB
:100A2000FF208DF8180066200090002002900390AF
:100A300001200346049006AA69460A4800F050F8CF
:100A400009480A490088B4380880202000F032FEA6
:100A500007B04FF400705DF804EB00F02BBE00000F
:100A6000143C0140C4010020680000206C000020FC
:100A700072B6FEE710B558B1084C491E0BD310F8FA
:100A8000013B5340DBB234F8133083EA1222F4E71F
:100A90004FF6FF7010BD104610BD0000D64C000888
:100AA00010B5054C04E000BF10F8013B5340E25C78
:100AB000491EF9D2104610BDD64B000890F82020F0
:100AC000012A07D0022A05D0416A41F480214162FF
:100AD00001207047006842690A4342610020704764
:100AE000F0B590F820500468A468012D05D0022DBF
:100AF00003D0416A41F480215DE014F0406F01D1E0
:100B0000E50055D5C4F30164022C03D9416A41F4D0
:100B1000000150E00125A5401D608D684FF4C073B1
:100B20009DB1CE6835434E6845EAC605066803EBBD
:100B30000417F5514FF4C275076805EB04150E69EB
:100B40007E51097D012905D009E00E88CD6845EA6E
:100B50004655EBE701684E5946F480764E511179BF
:100B6000D579567941EA056195792D0445EA06253E
:100B700029434FF4C676056806EB0416A95111788F
:100B8000D57841EA0561957852782D0445EA02222C
:100B900011434FF4C475026805EB04155151006808
:100BA00003EB0411425842F0010242500020F0BD14
:100BB000416A41F4001141620120F0BD10B590F886
:100BC0002020012A07D0022A05D0416A41F4802161
:100BD0004162012010BD3B48D0F8002242F00102E2
:100BE000C0F80022D0F8002222F47C52C0F8002283
:100BF000D0F800224B6A42EA0322C0F800220A7DA4
:100C000002F01F0301229A40D0F81C329343C0F82F
:100C10001C32CB69B3B9D0F80C329343C0F80C3214
:100C20008C894B6864F31F434C6900EBC404C4F81F
:100C300040320C890B6864F31F434C6900EBC40419
:100C4000C4F84432CB69012B16D1D0F80C321343CF
:100C5000C0F80C320C884B6864F31F434C6900EBFE
:100C6000C404C4F840320C89CB6864F31F434C6958
:100C700000EBC404C4F844328B69002BD0F8043272
:100C80000ED01343C0F804320B69002BD0F8143295
:100C900008D01343C0F81432096A012904D008E0CF
:100CA0009343EFE79343F5E7D0F81C121143C0F8E4
:100CB0001C12D0F8001221F00101C0F8001200202F
:100CC00010BD000000640040704730B590F820402F
:100CD000012C05D0022C03D0416A41F480215DE053
:100CE0000468002955D02469A40754D04FF4D8745F
:100CF000056804EB01142D5915F00405956005688D
:100D00002D594ED0ED08556005682C5904F00204A9
:100D1000D4604FF4DA74056804EB01142D5905F022
:100D20000F05156105682D59C5F3072595610568FF
:100D30002C59240C54614FF4DC72046802EB01124C
:100D4000A4581C700468A458240A5C700468A45851
:100D5000240C9C700468A258120EDA704FF4DE72F4
:100D6000046802EB0112A4581C710468A458240AF8
:100D70005C710468A458240C9C710468A258120E7B
:100D8000DA71006881B1016941F020010161002040
:100D900030BDE468A8E7416A41F4001141620120D6
:100DA00030BD6D0D1560AFE7C16841F02001C16035
:100DB000EDE72DE9F05F0546006800244669D0F8AC
:100DC00004908768D0F80CB0D0F810A0D0F8188044
:100DD000F10748D0F90714D001218160B80703D585
:100DE000284600F080FA0CE0780702D54FF4006442
:100DF00007E0380702D54FF4805402E0284600F09F
:100E000071FAF80516D529684FF480708860B80526
:100E100003D5284600F069FA0CE0780502D544F4C1
:100E2000005407E0380502D544F4804402E0284627
:100E300000F05AFAF80316D529684FF4803088601C
:100E4000B80303D5284600F052FA0CE0780302D527
:100E500044F4004407E0380302D544F4803402E04F
:100E6000284600F043FA300707D55FEACB6004D587
:100E70002968102044F40074C86070074FF0080718
:100E800007D55FEA0B7004D52868C760284600F0D4
:100E9000A9F9B00706D52868C068800702D028469F
:100EA00000F0A2F9700607D55FEACA6004D5296888
:100EB000102044F480640861B00607D55FEA0A7028
:100EC00004D528680761284600F0DCF9F00606D54D
:100ED00028680069800702D0284600F0D4F9B003E2
:100EE00008D55FEAC96005D5296810204860284602
:100EF00000F0CAF9F00307D55FEA097004D5286845
:100F00004760284600F0F4F9300446D55FEA49709E
:100F100040D5F00504D55FEAC87001D044F0010463
:100F2000B00504D55FEA887001D544F0020470056D
:100F300004D55FEA487001D544F00404300529D592
:100F400018F0700F26D008F07000402815D006DC8D
:100F5000102809D020280AD0302816D10AE05028BD
:100F60000ED0602811D10EE044F008040DE044F0EA
:100F700010040AE044F0200407E044F0400404E0D8
:100F800044F0800401E044F480742868816921F011
:100F900070018161296804204860002C05D0686ACE
:100FA000204368622846FFF78FFEBDE8F09F70B5CA
:100FB000040003D094F8200010B104E0012070BDBB
:100FC000204600F081F82068016841F001010160CD
:100FD00000F07AFC0546052604E000F075FC401B95
:100FE0000A2811D820684068C007F6D02068016838
:100FF00021F00201016000F067FC05460BE000F003
:1010000063FC401B0A2806D9606A40F40030606225
:1010100084F82060D2E7206840688007EFD4207E03
:101020000128206801683DD021F080010160607EC8
:1010300001282068016838D021F040010160A07EBD
:1010400001282068016833D021F020010160E07E92
:101050000128206801682ED041F010010160207F36
:1010600001282068016829D021F008010160607F13
:1010700001282068016824D021F004010160D4E92E
:1010800002010843D4E90412114308436168491E70
:1010900008432168C86100206062012084F82000B4
:1010A000002070BD41F08001C0E741F04001C5E77C
:1010B00041F02001CAE721F01001CFE741F008011B
:1010C000D4E741F00401D9E7F0B587B00446142114
:1010D0006846FFF727FA3E4B3E48DFF8F0E0196814
:1010E000D4F800C03B4A032502260927103000240B
:1010F000491CF4452AD11960012907D1016841F042
:1011000000710160006800F000700590106840F008
:10111000080010601068CDE9005600F00800CDE925
:10112000047069462C48CDE9024500F0CFFA002250
:101130000521132000F074FD132000F063FD002250
:101140000521142000F06CFD14203AE0DFF88CE05B
:10115000F44538D1D0F800C04CF0806CC0F800C025
:10116000D0F800C001290CF0806CCDF814C01960D3
:1011700007D1016841F000710160006800F0007063
:101180000590106840F002001060106802AB00F09B
:10119000020005906020CDE9000683E8B0006946B2
:1011A0000F4800F093FA002205213F2000F038FD9F
:1011B0003F2000F027FD00220521402000F030FDF7
:1011C000402000F01FFD07B0F0BD000000640040AB
:1011D0000C00002030380240000C02400068004043
:1011E000000402407047000010B504460068204922
:1011F0008AB0884210D107AB6A4600212046FFF72B
:1012000064FD0098552807D19DF81C00082803D1DB
:101210001849BDF81D00088017492068884225D16B
:1012200007AB6A4600212046FFF74FFD0098A0F269
:10123000012007281AD210F0FF01BDF81C0001EBB5
:10124000410342BA0D4800EB83008280BDF81E20A6
:1012500052BAC280BDF8202052BA02819DF82220E5
:10126000827203D106480188491C01800AB010BD72
:10127000006400407200002000680040280B00203D
:10128000EE000020704770477047000070B50446BC
:1012900090F82000012804D0606A40F400206062C9
:1012A00018E0022084F820002068016821F0010184
:1012B000016000F009FB05460EE000BF00F004FBF2
:1012C000401B0A2808D9606A40F40030606205209B
:1012D00084F82000012070BD20684068C007EDD16F
:1012E000606270BD704770477047704770477047C5
:1012F00070472DE9F0410446876D00F0E5FA064697
:1013000094F835000025022806D08020606584F816
:1013100034500120BDE8F0812068016821F01601F9
:1013200001602068416921F080014161206C08B9A9
:10133000A06C20B12068016821F0080101602068DC
:10134000016821F0010101600CE000F0BDFA801B92
:10135000052807D920206065032084F8350084F82B
:101360003450D7E720680068C007EED194F85C10CD
:101370003F208840B860012084F8350084F834505C
:101380000020C7E790F83510022903D0802141657D
:1013900001207047052180F835100068016821F0B0
:1013A00001010160002070472DE9F84304464FF029
:1013B0000009CDF8009063484FF41651A56D006800
:1013C000B0FBF1F72E6894F85C10082000FA01F1E8
:1013D00031420FD021680A6852070BD50A6822F003
:1013E00004020A6094F85C108840A860606D40F0C8
:1013F0000100606594F85C104FF0010808FA01F0F4
:10140000304208D021684969090604D5A860606D9A
:1014100040F00200606594F85C100420884030427F
:1014200008D021680968890704D5A860606D40F07C
:101430000400606594F85C1010208840304218D099
:1014400021680968090714D5A86020680168490364
:1014500004D50068000308D5A16C07E00168C90540
:1014600003D4016821F008010160216C09B1204614
:10147000884794F85C1020208840304231D02168A1
:101480000968C9062DD5A86094F83500052820689C
:10149000016806D0490347D5006800031DD4616C7C
:1014A0001CE021F0160101602068416921F08001F3
:1014B0004161206C08B9A06C20B12068016821F05E
:1014C0000801016094F85C103F208840A86084F80F
:1014D000358084F83490216D1FE0E16B09B120461E
:1014E0008847606D00282BD0606DC00714D00520A0
:1014F00084F835002068016821F00101016000983E
:10150000401C0090B84203D820680068C007F6D19C
:1015100084F8358084F83490E16C002910D001B053
:101520002046BDE8F04308470168C905D5D40168E5
:1015300021F01001016084F8358084F83490CCE704
:10154000BDE8F883240000202DE9F041044600F0B6
:10155000BBF906465CB1022084F83500002584F80A
:1015600034502068016821F0010101600DE0012084
:10157000BDE8F08100F0A8F9801B052805D92020DE
:101580006065032084F83500F2E720680068C00732
:10159000F0D12268116820480140D4E901031843C2
:1015A000D4E903363343184363691843A3691843E6
:1015B000E3691843236A18430843616A042903D185
:1015C000D4E90B1319430843106020684069666A28
:1015D00020F0070130460E43012704280CD1A06AF1
:1015E0000643E06A40B12046FFF7BAF920B1402037
:1015F000606584F83570BAE7206846612046FFF7D9
:101600009BF994F85C203F2191408160656584F8E6
:1016100035700020ACE700003F8010F02DE9F0416C
:101620000446866D90F83400002501280DD0012075
:1016300084F8340094F835700020012F07D084F826
:10164000340002252846BDE8F0810220FBE702278E
:1016500084F8357060652046FFF7ACF994F85C10AB
:101660003F208840B0602068016841F016010160A9
:10167000206C20B12068016841F0080101602068F9
:10168000016841F001010160DCE7000070B504462B
:1016900000F01AF90546601C02D0044800780444A2
:1016A00000F012F9401BA042FAD370BD18000020D0
:1016B00070470000044910B50A68024202D0086071
:1016C000FFF7F6FF10BD0000143C01402DE9F84F74
:1016D000DFF8BCA10022012503264FF00F090AF113
:1016E000040BAAF1040E00BF0B6805FA02F42340B4
:1016F000A34270D10F7907F00307012F01D0022F09
:1017000016D187684FEA420806FA08FC27EA0C0758
:10171000D1F80CC00CFA08FC4CEA070CC0F808C061
:101720004768A7430C79C4F3001494403C434460D9
:101730000C79E443A4070AD0C4684FEA420C06FAC5
:101740000CF7BC438F6807FA0CF72743C7600C7986
:1017500004F00304022C12D1D40800EB840CDCF852
:1017600020405707FF0E09FA07F824EA0804D1F8C9
:10177000108008FA07F848EA0408CCF820800468CA
:101780004FEA420C06FA0CF7BC430F7907F0030747
:1017900007FA0CF7274307604C6814F4403F70D0F9
:1017A0003C4C276847F480472760246822F00307F1
:1017B00004F480440094384C07EB040CDCF808482F
:1017C00097074FEA177809FA08F7BC43334FB84236
:1017D00002D1002724E054E0314FB84201D1012763
:1017E0001EE0304FB84201D1022719E02E4FB84217
:1017F00001D1032714E02D4FB84201D104270FE097
:101800002B4FB84201D105270AE02A4FB84201D137
:10181000062705E0284FB84201D1072700E0082736
:1018200007FA08F72743CCF80878DAF8004057465B
:10183000D1F804C09C435FEACC2C00D51C433C602B
:10184000DBF800405F46D1F804C09C435FEA8C2C73
:1018500000D51C433C60DEF800407746D1F804C058
:101860009C435FEA8C3C00D51C433C60084F083F1A
:101870003C68D1F804C09C435FEACC3C00D51C43D3
:101880003C60521C102AFFF42FAFBDE8F88F000017
:10189000083C014044380240003001400000024052
:1018A0000004024000080240000C02400010024008
:1018B0000014024000180240001C02400AB181617D
:1018C00070470904FBE7000001488068704700008A
:1018D0001800002070B5040025D094F83D000025C4
:1018E00020B984F83C50204600F0B8F8242084F851
:1018F0003D002068016821F0010101602068016855
:1019000041F4004101602068016821F40041016058
:1019100000F072FA4D4A6168914201D84C4900E0EA
:101920004C49884201D2012070BD4B492368B0FB6D
:10193000F1F15E6826F03F060E435E6063689342F5
:1019400006D94FF4967359434FF47A73B1FBF3F110
:101950002368491C1E6A26F03F06314319626168FC
:10196000914210D84900401EB0FBF1F2521CC2F364
:101970000B02042A01D2042022E0B0FBF1F0401C4B
:10198000C0F30B001CE0A268F2B301EBC10303EB50
:101990000116431EB3FBF6F35B1C43F480431B05A7
:1019A00049D092B301EBC10202EB0111401EB0FB22
:1019B000F1F0401CC0F30B0040F4804040F40040C4
:1019C0002168CA694CF6FF739A431043C861D4E991
:1019D000071001432068026822F0C0021143016031
:1019E000D4E9030101432068826848F2FF339A4337
:1019F00011438160D4E9050108432168CA6822F0D7
:101A0000FF021043C86001E00EE016E020680168A4
:101A100041F0010101602564202084F83D00256328
:101A200084F83E50002070BD01EB4106431EB3FB1D
:101A3000F6F35B1CB3E70120C2E701EB4101401E56
:101A4000B0FBF1F0401CC0F30B00B7E7A08601002B
:101A500080841E0000093D0040420F00F0B587B0B1
:101A6000044614216846FEF75DFD1D492068884242
:101A700033D11C480024016841F004010160016871
:101A800001F004010591016841F001010160006865
:101A9000122500F0010005904FF40070CDE900051B
:101AA00002AA0326042782E8D00069460E48FFF701
:101AB0000DFEB801CDE9000502AA694682E8D00012
:101AC0000A48FFF703FE07481030016841F400019F
:101AD0000160006800F40000059007B0F0BD000050
:101AE000005C004030380240000802400000024024
:101AF0000248816802781144816070471800002014
:101B00000B4810B5016841F400710160016841F4AF
:101B100080610160016841F480710160032000F080
:101B20009FF80F2000F006F800F050F8002010BDDC
:101B3000003C024030B505461F4887B000240168CC
:101B400041F002010160006806A900F00200009067
:101B500001A800F031F90498A8B100F04DF9400057
:101B60001649174AB0FBF1F11648491E026040F2CF
:101B7000E732C0E90324C0E90114846100F0F2FCFB
:101B8000040003D015E000F037F9E9E70D4800F054
:101B900093FD04000DD11D2000F034F8102D07D264
:101BA000002229461D2000F03BF80748056000E0B0
:101BB000012407B0204630BD4038024040420F00AB
:101BC000000400403C0800201C0000200C4882B0AB
:101BD000016841F480410160006800F48040009099
:101BE0000748001F016841F0805101600068002231
:101BF00000F0805000900F21901E02B000F010B84D
:101C000044380240002809DB00F01F020121914006
:101C10004009800000F1E020C0F80011704700008A
:101C2000F0B40E4B1B680C46C3F30223C3F1070547
:101C3000042D00D90425191D072901D2002300E035
:101C4000DB1E012606FA05F1491E214099409E40FF
:101C5000761E16403143F0BC02F0C1BD0CED00E031
:101C6000064900F0070208684FF6FF03184040EAF3
:101C70000220034A10430860704700000CED00E0AA
:101C80000000FA052DE9F0470E46050065D0DFF8A3
:101C90001481D8F80000F7B200F00700B04207D274
:101CA00088F80070D8F8000000F00700B04254D166
:101CB00028683D4C810712D5400703D5206840F4C1
:101CC000E05020602878000703D5206840F4604089
:101CD00020602068A96820F0F00008432060287880
:101CE000C0072DD0304968680839012812D0022871
:101CF00013D0032811D00968890700292DDA21683B
:101D000021F0030101432160FFF7DEFD814641F22E
:101D1000883A0EE009688903EFE709688901ECE772
:101D2000FFF7D2FDA0EB0901514502D90320BDE820
:101D3000F0872068696800F00C00B0EB810FEFD1EC
:101D4000D8F80010404601F00701B14207D90770EA
:101D5000006800F00700B04201D00120E7E72878D2
:101D6000400705D52068E96820F4E050084320606A
:101D70002878000706D52068296920F4604040EAE9
:101D8000C100206000F058F82168084AC1F303112F
:101D9000515CC8400649086006480068FFF7CAFE63
:101DA0000020C4E7003C024008380240BE4B000857
:101DB000240000201C0000200F2202600C4A13683F
:101DC00003F003034360136803F0F00383601368B8
:101DD00003F4E053C36012684FF4E05303EAD20205
:101DE00002610448006800F00700086070470000C6
:101DF00008380240003C0240044805490068096870
:101E0000044AC1F38221515CC8407047240000207D
:101E100008380240CE4B00080448054900680968AC
:101E2000044AC1F34231515CC8407047240000208D
:101E300008380240CE4B0008154810B5006810F075
:101E40000C02144813D01449042A0FD0082A0ED1CA
:101E50000F4C241F2268236802F03F025B0207D563
:101E60002068C0F38810A0FB010106E0084610BD01
:101E70002168C1F38811A1FB00010023FEF764FA79
:101E80002168C1F30141491C4900B0FBF1F010BDCC
:101E9000083802400024F400001BB7002DE9F84F79
:101EA00004006ED02078DFF84C93C007A9F1040538
:101EB0004AD009F104000168C1F38101012908D069
:101EC0000068C0F3810002280AD1D9F8000040025E
:101ED00006D52868800337D560680028E1D033E054
:101EE0006068B0F5803F10D0B0F5A02F286810D002
:101EF00020F480302860286820F480202860606802
:101F0000A8B1FFF7E1FC06460DE0286840F48030F8
:101F1000F4E740F480202860F7E700BFFFF7D4FC27
:101F2000801B642873D828688003F7D50CE0FFF77E
:101F3000CBFC064605E000BFFFF7C6FC801B64280B
:101F4000F0D828688003F7D42078DFF8AC828007C7
:101F50004FF0000A3ED5A748001D016811F00C0F94
:101F600008D00068C0F3810002280BD1D9F8000026
:101F7000400207D42868800716D5E068012800D100
:101F800012E033E1E068B8B10120C8F80000FFF7C3
:101F90009BFC064605E000BFFFF796FC801B02286D
:101FA000C0D828688007F7D52868216920F0F80094
:101FB00040EAC10028600DE0C8F800A0FFF784FCEB
:101FC000064604E0FFF780FC801B02281FD8286823
:101FD0008007F7D42078000722D5864F87486169AB
:101FE000703771B101210160FFF76EFC064604E015
:101FF000FFF76AFC801B022809D838688007F7D5EC
:102000000EE0C0F800A0FFF75FFC064605E082E0A6
:10201000FFF75AFC801B02287DD838688007F7D468
:102020002078400768D5DFF8CCB100270BF13C0BD6
:10203000DBF80000C0000BD4DBF8001041F0805149
:10204000CBF80010DBF80000012700F08050009072
:102050006B4E3068C00510D4306840F4807030603A
:10206000FFF732FC009005E0FFF72EFC0099401AC4
:10207000022850D83068C005F6D55E4EA0686C3690
:1020800001280FD00528306810D020F00100306002
:10209000306820F004003060A068B8B1FFF714FC8D
:1020A00000900FE0306840F00100F4E740F00400D9
:1020B0003060F7E7FFF708FC0099411A41F28830D9
:1020C000814266D830688007F4D50EE0FFF7FCFB4C
:1020D000009007E0FFF7F8FB0099411A41F28830C1
:1020E000814256D830688007F4D42FB1DBF8001055
:1020F00021F08051CBF80010A069C8B33D49091DFB
:102100000968C1F3810102294AD00228504607D04C
:10211000C8F8600000E03CE0FFF7D6FB04463BE077
:102120004746C8F86000FFF7CFFB064605E000BF52
:10213000FFF7CAFB801B02282BD828688001F7D440
:10214000D4E907010843A16A2E4A490802EB01417C
:10215000626A41EA8211084394F82C1040EA016156
:10216000C9F8001001203866FFF7AEFB044606E010
:102170003EE000BFFFF7A8FB001B022809D8286833
:102180008001F7D534E000BFFFF79EFB001B02285B
:1021900002D90320BDE8F88F28688001F4D427E035
:1021A0000128F7D0D9F80000E26900F480019142DB
:1021B0001CD1226A00F03F01914217D147F6C0714D
:1021C000626A0140B1EB821F10D1A26A4FF0FF3367
:1021D00000F4403103EB5202B1EB024F06D194F808
:1021E0002C1000F07060B0EB016F01D00120D1E73E
:1021F0000020CFE70438024000004742800E4742EB
:10220000007000400000FFFF7047000038B5016813
:1022100004464A688868C043430606D5C30704D10C
:10222000D3435B0601D4216C05E0830708D4D34374
:102230001B0605D4616C01B02046BDE8304008475C
:10224000830603D5430601D5C30551D4D3439B066A
:102250004ED443060AD494F85130032B49D0636D11
:1022600043F004036365CB688B680093830609D44D
:10227000636D43F0010363658B6800930B6823F083
:1022800040030B60C00506D4606D40F00800606537
:10229000206880680090606D002829D0206841681F
:1022A00021F0E0014160012084F85100900701D441
:1022B000D00722D02068416821F003014160114D10
:1022C000E06C40B10565E06CFFF75CF818B1606D3B
:1022D00040F040006065A06C002809D00565A06C46
:1022E000FFF750F8002803D0606D40F040006065B3
:1022F00038BDC8688868009038BD2046FFF784FF65
:1023000038BD00009D3B000870B5040009D0606A2C
:10231000002540B125616561A56294F8510040B186
:102320000CE0012070BD6068B0F5827FF4D0E561FB
:10233000F2E784F85050204600F044F8022084F878
:1023400051002068016821F040010160A0882189C6
:1023500000F4827001F404410843A18901F4006192
:102360000843217C01F002010843217D01F00101B5
:102370000843218B01F400710843217F01F03801EB
:10238000084394F8201001F080010843218D01F4E6
:102390000051084321680860A069042101EA104047
:1023A00094F8241001F01001084321684860206867
:1023B000C16921F40061C1616565012084F85100A3
:1023C000002070BD2DE9F04186B006461421684614
:1023D000FEF7A8F83849306888426AD137480024A7
:1023E000016841F480510160006800F4805005905C
:1023F00032481438016841F002010160016801F0BF
:1024000002010591016841F00101016000680225A7
:1024100000F0010005901820CDE9000502AA03276D
:102420004FF0050882E8900169462548FFF74EF90C
:102430008020CDE9000502AA694682E89001214882
:10244000FFF744F9214D20487F062860C5E9017453
:102450004FF48068C5E903486C61AC61EC612C62A3
:1024600028466C62FFF770F808B1FEF701FBF564CF
:10247000AE63164D144860354830E5E80207402049
:10248000A5E81101114845F814496030AC61EC61D0
:102490002C626C62FFF758F808B1FEF7E9FAB564F0
:1024A000002205212320AE63FFF7BAFB2320FFF7AC
:1024B000A9FB06B0BDE8F08100300140443802407D
:1024C000000402400000024010640240C0020020EC
:1024D0007047704770B590F83C20012A32D0012433
:1024E00080F83C40022280F83D2003685A689D68CD
:1024F00022F070060A6832435A60134B02689A420F
:1025000014D0B2F1804F11D0104B9A420ED0104B24
:102510009A420BD00F4B9A4208D00F4B9A4205D0EB
:102520000E4B9A4202D00E4B9A4204D1496825F0D4
:1025300080031943916080F83D40002180F83C10F1
:10254000084670BD022070BD00000140000400403C
:1025500000080040000C0040000401400040014021
:102560000018004010B5040003D094F83D0010B1ED
:1025700007E0012010BD002084F83C00204600F058
:102580001FF8022084F83D00211D206801F0DAFBCD
:10259000012084F8460084F83E0084F83F0084F867
:1025A000400084F8410084F8420084F8430084F835
:1025B000440084F8450084F83D00002010BD000070
:1025C00008B5374A01683748914207D1016841F0A0
:1025D00001010160006800F0010049E0314A121F6A
:1025E000B1F1804F11D0304B99421DD1106840F0AD
:1025F000040010601068002200F004000090052123
:102600001E20FFF70DFB1E2039E0106840F001008E
:1026100010601068002200F00100009005211C20CD
:10262000FFF7FEFA1C202AE0204A914216D10168E9
:1026300041F0020101600068002200F002000090F9
:1026400005212B20FFF7ECFA2B20FFF7DBFA002205
:1026500005212C20FFF7E4FA2C2010E0144A9142C7
:1026600011D1016841F480310160006800F48030CC
:102670000090002205211820FFF7D2FA1820BDE8AB
:102680000840FFF7BFBA0B4A914207D1016841F4F5
:1026900000310160006800F40030009008BD0000C7
:1026A000000001404438024000080040000401409E
:1026B000004001400044014090F83D10012901D044
:1026C00001207047022180F83D100168CA6842F07D
:1026D0000102CA6000681149884214D0B0F1804FED
:1026E00011D00F4988420ED00E4988420BD00E49B6
:1026F000884208D00D49884205D00D49884202D051
:102700000C49884204D1816801F00701062903D0F1
:10271000016841F0010101600020704700000140A4
:102720000004004000080040000C0040000401408C
:1027300000400140001800400168CA6822F0010210
:10274000CA6001680A6A41F211131A4207D10A6A83
:102750009B101A4203D10A6822F001020A6001218B
:1027600080F83D100020704770B5044690F83C009A
:102770000025012817D0012684F83C60022084F847
:102780003D002068826822F0770222F47F42826056
:102790000868502838D00DDC20284FD005DC90B3D5
:1027A000102811D14AE0022070BD302846D04028C0
:1027B0000AD13BE060282FD070280DD0B0F5805FA3
:1027C00003D0B0F5005F12D0012584F83D600020F1
:1027D00084F83C00284670BDCB68D1E9012120680F
:1027E00001F021FB2068816841F0770109E0CB68A6
:1027F000D1E90121206801F016FB2068816841F4CD
:1028000080418160E1E719E0CA684968206801F009
:10281000DFFB5021206806E0CA684968206801F0A3
:10282000E8FB6021206801F008FBCEE7CA68496830
:10283000206801F0CDFB40212068F4E722680146C2
:102840001046F0E7704770B50446006801694FF024
:102850000005C943890715D4C168C943890711D444
:10286000E91E0161012020772068806980072046E9
:1028700002D0FFF7E7FF04E000F0C2F8204600F0C6
:1028800054F9257720680169C943490717D4C168FD
:10289000C943490713D46FF0040101610220207776
:1028A0002068806910F4407F204602D0FFF7CAFFFD
:1028B00004E000F0A5F8204600F037F925772068FD
:1028C0000169C943090716D4C168C943090712D46D
:1028D0006FF008010161042020772068C06980073B
:1028E000204602D0FFF7AEFF04E000F089F8204652
:1028F00000F01BF9257720680169C943C90617D480
:10290000C168C943C90613D46FF0100101610820E2
:1029100020772068C06910F4407F204602D0FFF77E
:1029200091FF04E000F06CF8204600F0FEF82577F7
:1029300020680169C943C90708D1C168C943C907EB
:1029400004D1891E0161204600F054F92068016914
:10295000C943090609D4C168C943090605D46FF003
:10296000800101612046FFF7B3FD20680169C9437A
:10297000490609D4C168C943490605D46FF040012E
:102980000161204600F040F920680169C9438906C9
:102990000BD4C168C943890607D46FF020010161D7
:1029A0002046BDE87040FFF794BD70BD10B586B0FD
:1029B000044614216846FDF7B5FD0E49206888429B
:1029C00015D10D48016841F0200101600068012126
:1029D00000F020000590402000900220CDE9010188
:1029E00003900320049069460448FEF76FFE06B08A
:1029F00010BD000000440140303802400014024085
:102A0000704770B5044690F83C0000260D4601283A
:102A10000FD0012084F83C006AB1042A1DD0082A96
:102A20002FD00C2A3FD00126002084F83C003046ED
:102A300070BD022070BD206801F008FA206881692D
:102A400041F0080181612068816921F00401816100
:102A5000206881692A69114311E0206801F026FA93
:102A60002068816941F4006181612068816921F4F5
:102A700080618161206881692A6941EA022181615E
:102A8000D2E7206801F048FA2068C16941F00801E6
:102A9000C1612068C16921F00401C1612068C16978
:102AA0002A69114311E0206801F06AFA2068C169BF
:102AB00041F40061C1612068C16921F48061C16194
:102AC0002068C1692A6941EA0221C161ACE710B5F9
:102AD000040003D094F83D0010B107E0012010BDC0
:102AE000002084F83C00204600F01EF8022084F804
:102AF0003D00211D206801F025F9012084F84600E1
:102B000084F83E0084F83F0084F8400084F84100D7
:102B100084F8420084F8430084F8440084F84500B7
:102B200084F83D00002010BD7047704710B5044682
:102B3000022249B104290ED0082913D094F841008B
:102B4000012816D0012010BD94F83E000128F9D1CB
:102B500084F83E200FE094F83F000128F2D184F879
:102B60003F2008E094F840000128EBD184F8402091
:102B700001E084F841200122206801F047F916495C
:102B80002068164A884201D0904203D1436C43F436
:102B9000004343642068884213D0B0F1804F10D0C6
:102BA0000F4988420DD00F4988420AD00E49884209
:102BB00007D0904205D00D49884202D00C49884286
:102BC00004D1816801F00701062903D0016841F0B2
:102BD00001010160002010BD00000140000401401F
:102BE0000004004000080040000C0040004001408C
:102BF0000018004000680349884201D1FEF778BF01
:102C000070470000000400407047704710B504464C
:102C10000068406994F83D10C0F3C010212911D11B
:102C200080B12068143050E8001F21F0800140E896
:102C30000012002AF5D1606B08B1FEF75AFB20465E
:102C400001F0B1FA2068406994F83E10C0F380109A
:102C5000222911D180B12068143050E8001F21F0E2
:102C6000400140E80012002AF5D1A06B08B1FEF740
:102C700040FB204601F070FA002010BD70470000B4
:102C8000F8B5016804460868CA684B6910F00F0F70
:102C90004FF0000559D003F0010602F49077374356
:102CA00065D0C10705D0D10503D5216C41F00101E4
:102CB0002164410705D5D90703D0216C41F00201F9
:102CC0002164810705D5D90703D0216C41F00401A7
:102CD0002164010707D502F02001314303D0216CA4
:102CE00041F008012164216C00293AD0800604D506
:102CF000900602D5204601F064FA20684069216CF4
:102D0000C0F38010090700D460B3204601F024FA14
:102D100020684069400621D52068143050E8001F23
:102D200021F0400140E80012002AF5D1A06BA8B1C3
:102D30006C490165A06BFEF725FB002811D0A06B44
:102D4000016D01B0BDE8F040084783060FD593063A
:102D50000DD52046BDE8F84001F033BA2046FFF714
:102D60008DFFF8BD2046FFF789FF2564F8BD266B6F
:102D70002023012E79D1C60677D5D60675D50868E9
:102D8000486800904869400640D5A16B08684068D3
:102D90000004000CEAD0A28D8242E7D9E085C86920
:102DA000B0F5807F2DD020680C3050E8001F21F452
:102DB000807140E80012002AF5D12068143050E8F4
:102DC000001F21F0010140E80012002AF5D120681F
:102DD000143050E8001F21F0400140E80012002AA2
:102DE000F5D184F83E30256320680C3050E8001F90
:102DF00021F0100140E80012002AF5D1A06BFEF787
:102E000078FAA08DE18D401A81B229E0A08DE18D84
:102E1000401A81B2E08D0028A8D00029A6D02068F1
:102E20000C3050E8002F22F4907240E80026002E6B
:102E3000F5D12068143050E8002F22F0010240E85C
:102E40000026002EF5D184F83E30256320680C3032
:102E500050E8002F22F0100240E80023002BF5D1AB
:102E60002046FFF7D2FEF8BDFFE705062BD5150675
:102E700029D594F83D002128F5D1A068B0F5805FF0
:102E800001D12069B0B1206A411C2162216800781B
:102E90004860E08C401E0004000CE084E3D1206810
:102EA000C16821F08001C1602068C16841F0400123
:102EB000C160D8E7206A0088C0F308004860206A33
:102EC000801C2062E5E74006CDD55006CBD5CA6808
:102ED000204622F04002CA6084F83D3000F059FAE2
:102EE000C1E700001740000870B5040004D094F852
:102EF0003D00002510B106E0012070BD84F83C5073
:102F0000204600F023F8242084F83D002068C168A2
:102F100021F40051C160204601F0B4F92068016934
:102F200021F4904101612068416921F02A01416149
:102F30002068C16841F40051C1602564202084F8F4
:102F40003D0084F83E00002070BD00002DE9F04FE8
:102F500087B0044614216846FDF7E4FAA648DFF876
:102F6000948214380322D4F800C0A34B0221170422
:102F7000002506154FF0070E4FF04009C4456FD1EC
:102F8000D3F800C04CF0100CC3F800C01B6803F06D
:102F900010030593036843F002030360036803F022
:102FA00002030593036843F00103036000688A4647
:102FB00000F0010005908020CDE9000ACDE9025221
:102FC0009346F0466946CDF810E08C48FEF77EFB4C
:102FD0007010CDE9000ACDE9025B6946CDF810809A
:102FE0008748FEF773FBDFF820B2864958464FF05A
:102FF000006802C00915E0E802858E10E0E8035180
:10300000BA4640F8045C80E860045846CBF8245087
:10301000FEF79AFA08B1FDF72BFD7B4F7948C4F80B
:1030200038B060377830CBF8384087E801030015B6
:10303000C7E9035007F118007D6180E86004384655
:103040007D62FEF781FA08B1FDF712FD6763002289
:1030500005212520BC63FEF7E3FD252062E0FFE7A4
:10306000DFF8A881C44562D1634BAA461B1FD3F881
:1030700000C04CF4802CC3F800C01B6803F480230C
:103080000593036843F004030360006800F0040044
:1030900005904FF440608DE82300CDE9032E69468A
:1030A0005B48FEF713FBDFF860815A4908F1C0085E
:1030B0004046C8F800104FF0006BC0E901B5C0E908
:1030C0000356C8F820708915C8F81450C8E906518D
:1030D000C8F82450FEF738FA08B1FDF7C9FC4E4D88
:1030E000C4F838804B48C8F838403030C5F80890EC
:1030F000C5E9000BC5E903A6C5F814A0C5F818A0DA
:10310000C5E907A72846C5F824A0FEF71DFA08B1AF
:10311000FDF7AEFC6563002205212720AC63FEF7B6
:103120007FFD2720FEF76EFD07B0BDE8F08FDFF8CA
:10313000EC80C445F8D1D3F800C04CF0200CC3F8A3
:1031400000C01B6803F020030593036843F04003AD
:103150000360006800F0400005904FF48440CDE922
:1031600000010120CDE902020820049069462C48A4
:10317000FEF7ACFADFF8A080224908F160081839A0
:1031800040464FF0206AC8F80010C0E901A5C0E928
:103190000356C8F81450C8F81850C8E90757C8F8BB
:1031A0002450FEF7D1F908B1FDF762FC1A4FC4F8BC
:1031B0003880C037C8F83840C7F80890C7E90356C8
:1031C00010487D616030BD61C7E9000A4FF480306E
:1031D000C7E9075038467D62FEF7B6F908B1FDF73A
:1031E00047FC6763002205214720BC63FEF718FDFA
:1031F000472097E700100140443802400004024095
:103200000000024040640240FC05002000480040ED
:1032100000080240286002401C0700200014014002
:103220000018024090F83E30202B0ED159B152B117
:1032300090F83C30012B08D0012380F83C3000236B
:10324000036301F0A5B80120704702207047000019
:1032500010B500681649884228D11648FFF7D6FCF9
:103260001448806B006840681349C0F18000C2B206
:1032700012488A700C780378A34217D143784978B2
:103280008B4213D100F1800150F82F3F0B6043684F
:103290004B60806888608039094800F015F8BDE807
:1032A0001040802205490348FFF7BCBF10BD000055
:1032B00000100140300500200000002038010020EF
:1032C000B80500207047000070B5044690F83D0036
:1032D000202836D191B38AB394F83C00012830D02D
:1032E000012084F83C002162A284E2840025256448
:1032F000212084F83D00636B1348D863636B134847
:103300001864636B1248D864606B134605652668C1
:10331000606B321DFEF782F921686FF04000086093
:1033200084F83C502068143050E8001F41F08001C0
:1033300040E80012002AF5D1002070BDFFE701200F
:10334000FBE70220F9E700000D4100084F410008AB
:103350002740000890F83D30202B18D1A9B1A2B128
:1033600090F83C30012B12D001628284C28400218B
:103370000164212280F83D2080F83C100068C1687B
:1033800041F08001C1600020704701207047022099
:10339000704770477047FEE72DE9F0470E46074635
:1033A0000025DFF89491C0E0785DA52873D17819E5
:1033B0000446052101F000FA00286CD06078A1785D
:1033C00040EA012805EB08000930B04246D8204603
:1033D00008F1090101F0D2F900285CD06079A179E7
:1033E00040EA012040F20221A0F20222884261D08C
:1033F00018DCB0F5817F40D00ADC01281BD00328FF
:1034000020D005282BD0A0F58070013822D12DE0E6
:10341000B0F5827F38D0A0F5807005383CD0FC280C
:1034200018D140E0092A15D2DFE802F0144B5259B6
:1034300060676E7577000B20804602463E48E11DAE
:103440008F3805E02020804602463B48E11D833846
:10345000FCF7F1FF05EB08000930C5B265E00D206F
:10346000804602463448E11D6338F1E70420804677
:1034700002463148E11D5638EAE7042080460246FC
:103480002D48E11D5238E3E70220804602462A48D3
:10349000E11D4E38DCE746E0012080460246264822
:1034A000E11D4C38D4E71B20804602462248E11D2E
:1034B0004B38CDE71020804602461F48E11D3038CA
:1034C000C6E71020804602461B48E11D2038BFE7B2
:1034D0000120804602461848E11D1038B8E7012057
:1034E000804602461448E11D0F38B1E701208046AE
:1034F00002461148E11D0E38AAE707208046024621
:103500000D48E11D0D38A3E70620804602460A4813
:10351000E11D801F9CE7042000E006208046024653
:10352000E11D484694E76D1CEDB2B542FFF43CAF97
:10353000BDE8F04701F0B8B8DC0D00200F4810B529
:103540000D4901600321416000214FF41022816088
:10355000C0E903124FF40012426101764176817690
:10356000C17601774177FDF722FD002803D0BDE841
:103570001040FDF77DBA10BD00640040C40100207A
:103580000F4810B50D4901600321416000214FF43F
:1035900010228160C0E903124FF4001242610176EB
:1035A00041768176C17601774177FDF700FD0028ED
:1035B00003D0BDE81040FDF75BBA10BD00680040C5
:1035C000EC010020294808B5016841F48001016040
:1035D000016801F480010091016841F4001101606B
:1035E0000068002200F40010009005210C20FEF776
:1035F00017FB0C20FEF706FB002205210E20FEF72C
:103600000FFB0E20FEF7FEFA002205213820FEF700
:1036100007FB3820FEF7F6FA002205213920FEF7D5
:10362000FFFA3920FEF7EEFA002205213A20FEF7D4
:10363000F7FA3A20FEF7E6FA002205213B20FEF7D2
:10364000EFFA3B20FEF7DEFA002205214520FEF7C7
:10365000E7FA4520FEF7D6FA002205214620FEF7BC
:10366000DFFABDE808404620FEF7CCBA3038024009
:103670002DE9F04786B014216846FCF753FF5C48FB
:103680004FF0000A016841F002010160016801F099
:1036900002010591016841F040010160016801F0FB
:1036A00040010591016841F001010160016801F0EC
:1036B00001010591016841F008010160016801F014
:1036C00008010591016841F004010160016801F001
:1036D00004010591016841F080010160016801F079
:1036E00080010591016841F020010160016801F04D
:1036F00020010591016841F01001016000683D4E14
:1037000000F010000590012240213046FEF7D6F867
:10371000394F4FF4E055002229463846FEF7CEF8DF
:10372000DFF8D880012210214046FEF7C7F8DFF805
:10373000D090012211464846FEF7C0F801244020EF
:10374000CDE900040294694630460394FDF7BEFFBC
:10375000CDE90054CDE9024A69463846FDF7B6FF87
:1037600008204FF48815CDE90005694602943046DB
:10377000FDF7ACFF1020CDE900040226CDE902469A
:1037800069464046FDF7A2FF3020CDE900056946B5
:1037900002941C48FDF79AFF6002CDE900056946D6
:1037A00002941948FDF792FFCDE90246009469465C
:1037B00048460194FDF78AFF002205210920FEF703
:1037C0002FFA0920FEF71EFA002205210A20FEF733
:1037D00027FA0A20FEF716FA002205211720FEF725
:1037E0001FFA1720FEF70EFA06B0BDE8F0870000BA
:1037F0003038024000180240001C02400000024025
:103800000004024000080240001002400D4810B5BC
:103810000B4901600C49416000214FF480428160F6
:10382000C0E9031241618161C1610162FEF752F892
:10383000002803D0BDE81040FDF71AB910BD000004
:10384000005C004014020020801A0600104810B5E9
:103850000E4901604FF482714160002102228160B3
:10386000C0E9031201224261520282611022C0E9C2
:103870000721416281620A21C162FEF745FD0028ED
:1038800003D0BDE81040FDF7F3B810BD0030014093
:103890006802002010B588B01C216846FCF742FE83
:1038A000144813490024C0E9001441F28731C0E9EB
:1038B000024104618461FEF755FE08B1FDF7D8F8B6
:1038C0000C48FFF704F908B1FDF7D2F86020CDE904
:1038D000000402940022694606480494FFF791F818
:1038E00008B1FDF7C5F80348FFF760F808B010BD50
:1038F00000440140E804002010B586B000241748B9
:103900000094019402940394049413490594016073
:1039100044F29F11C0E901146321C0E9031444611A
:103920008461FEF71FFE08B1FDF7A2F84FF4805046
:10393000009069460948FEF717FF08B1FDF798F8AF
:10394000049404A905480594FEF7C4FD002801D09D
:10395000FDF78EF806B010BD000001408003002086
:1039600010B586B000241648009401940294039484
:1039700004944FF080410594016042F2D001C0E907
:1039800001146321C0E903148461FEF7EBFD08B163
:10399000FDF76EF84FF48050009069460848FEF736
:1039A000E3FE08B1FDF764F8049404A90448059403
:1039B000FEF790FD002801D0FDF75AF806B010BDC3
:1039C000C803002010B586B0002417480094019465
:1039D00002940394049413490594016042F2CF01C8
:1039E000C0E9011442F20F71C0E903148461FEF7CB
:1039F000B9FD08B1FDF73CF84FF4805000906946DE
:103A00000948FEF7B1FE08B1FDF732F8049404A9A5
:103A100005480594FEF75EFD002801D0FDF728F863
:103A200006B010BD000800401004002010B586B09C
:103A300000241748009401940294039404941349B9
:103A40000594016044F29F11C0E901146321C0E9AB
:103A5000031444618461FEF785FD08B1FDF708F8A1
:103A60004FF48050009069460948FEF77DFE08B18A
:103A7000FCF7FEFF049404A905480594FEF72AFD0F
:103A8000002801D0FCF7F4FF06B010BD000401408F
:103A9000580400201FB500211048009101910291A7
:103AA0000D4A0391026044F29F12C0E90121632292
:103AB000C0E903218161FEF755FD08B1FCF7D8FF8D
:103AC0004FF48050009069460448FEF74DFE0028F0
:103AD00001D0FCF7CDFF1FBD00400140A004002035
:103AE0000C4810B50A4901604FF4E13141600021F2
:103AF00081600C22C160C0E904128161C161FFF7DD
:103B0000F3F9002803D0BDE81040FCF7B1BF10BDA9
:103B100000100140300500200C4810B50A49016032
:103B20000B494160002181600C22C160C0E9041290
:103B30008161C161FFF7D8F9002803D0BDE81040CA
:103B4000FCF796BF10BD000000480040740500203F
:103B5000A08601000C4810B50A4901604FF4E1311C
:103B60004160002181600C22C160C0E904128161C2
:103B7000C161FFF7B9F9002803D0BDE81040FCF798
:103B800077BF10BD00140140B8050020FEE7FEE736
:103B90000148FEF73BBB00006802002010B5806BB7
:103BA0000021C187C186FEF72FFB10BD10B5502044
:103BB00080F31188BFF34F8FBFF36F8F00F090FF3A
:103BC00018B104494FF080500860002080F311883C
:103BD00010BD000004ED00E030B593B03021684620
:103BE000FCF7A0FC14210CA8FCF79CFC1D48002548
:103BF000016841F080510160006800F08050119030
:103C00001948016841F4804101600068022400F411
:103C10008040119001200090000401908001CDE9C6
:103C2000064006200890A820CDE9090404200B9046
:103C30006846FEF733F908B172B6FEE70CA90F200B
:103C400081E831004FF4A0500F904FF48050109055
:103C500005210CA8FEF716F8002801D072B6FEE781
:103C600013B030BD40380240007000400248016887
:103C700041F470010160704788ED00E010B5044820
:103C8000FEF7E1FDBDE810400248FEF7DCBD000094
:103C900080030020A00400200148FEF7D4BD0000EE
:103CA000C80300200148FEF7CEBD00003C080020FC
:103CB0000548807A012803D104484168491C4160C5
:103CC0000348FEF7C0BD0000E60D002010000020F4
:103CD000100400200148FEF7B6BD00005804002083
:103CE00070B51349087801281CD11248124B02887C
:103CF000521C94B204804288A4F50075521C92B202
:103D0000428000208A3D00D118700C4CF02A00D16E
:103D1000207018782278104304D1022008700848D7
:103D2000FEF70AFDBDE870400548FEF78CBD0000B7
:103D3000F500002010000020EC000020ED00002025
:103D400058040020F0B50268254C264D264E274F1A
:103D5000274B4FF0804CA04209D0604507D0A842C5
:103D600005D0B04203D0B84201D0984204D122F02D
:103D7000700E4A6842EA0E02A0421BD0604519D07C
:103D8000A84217D0B04215D0B84213D0984211D0F3
:103D9000184DA8420ED0184DA8420BD0174DA8427E
:103DA00008D0174DA84205D0164DA84202D0164D96
:103DB000A84203D122F44075CA682A434D6922F013
:103DC00080022A4302608A68C2620A688262A04254
:103DD00001D0984201D10969016301214161F0BD1F
:103DE000000001400004004000080040000C0040BA
:103DF00000040140004001400044014000480140EF
:103E000000180040001C00400020004010B501F0E8
:103E10001F030121046A99408C430462016A9A409D
:103E20001143016210BD10B5846842EA032224F4F4
:103E30007F440A432243826010BD826822F07002F0
:103E40000A4342F00701816070470000F0B5026A42
:103E500022F001020262036A42688469124E24F071
:103E600073050C682C4323F002058B682B430D4D22
:103E7000A84201D0B04205D123F00807CB683B43EC
:103E800023F00403A84201D0B04205D14D6922F4C9
:103E9000407215438A692A434260846149684163DC
:103EA0000362F0BD0000014000040140F0B5026A69
:103EB00022F010020262026A436884690D6824F4E9
:103EC000E64444EA05248D6822F0200242EA051205
:103ED0000F4D104EA84201D0B04206D1CF6822F05B
:103EE000800242EA071222F04002A84201D0B0420A
:103EF00007D14D6923F4406343EA85038D6943EAA2
:103F0000850343608461496881630262F0BD0000FB
:103F10000000014000040140F0B5026A22F4807202
:103F20000262026A4368C46922F4007224F07305D5
:103F30000C68124E2C438D6842EA05220E4DA842B1
:103F400001D0B04206D1CF6822F4006242EA0722D3
:103F500022F48062A84201D0B04207D14D6923F417
:103F6000405343EA05138D6943EA05134360C46176
:103F70004968C1630262F0BD0000014000040140D5
:103F800030B5026A22F480520262046A4268C36950
:103F90000D6823F4E64343EA05238D6824F40054B6
:103FA00044EA0534084DA84202D0084DA84204D185
:103FB0004D6922F4804242EA85124260C361496839
:103FC0000164046230BD00000000014000040140B3
:103FD00010B5036A046A24F001040462846924F0C1
:103FE000F00444EA021423F00A020A4384610262E4
:103FF00010BD10B5036A23F0100303628369046ADD
:1040000023F4704343EA023224F0A00343EA01118F
:104010008261016210BD10B5806B0021C185C18431
:10402000FEF72CFE10BD70B5846B2068406994F8D3
:104030003D10C0F3C0100025212904D118B1E5843A
:10404000204600F0B0F82068406994F83E10C0F3B4
:104050008010222904D118B1E585204600F07CF8B3
:10406000206C40F0100020642046FEF707FE70BD73
:1040700010B50146806B09680968C9052FD4002175
:10408000C18501680C3151E8002F22F4807241E8AB
:104090000023002BF5D10168143151E8002F22F0E4
:1040A000010241E80023002BF5D10168143151E8E9
:1040B000002F22F0400241E80023002BF5D12021FF
:1040C00080F83E10016B012909D101680C3151E8DB
:1040D000002F22F0100241E80023002BF5D1016BE4
:1040E000012902D0FFF7B4F810BD818DFEF78DFDD8
:1040F00010BD10B5806B016B012902D0FFF7E2F80B
:1041000010BD818D4908FEF780FD10BD10B5014638
:10411000806B09680968C90516D40021C18401684B
:10412000143151E8002F22F0800241E80023002BD7
:10413000F5D101680C3151E8002F42F0400241E80E
:104140000023002BF5D110BDFFF723F910BD10B5EA
:10415000806BFFF71FF910BD01680C3151E8002F8B
:1041600022F4907241E80023002BF5D1016814314C
:1041700051E8002F22F0010241E80023002BF5D185
:10418000016B012909D101680C3151E8002F22F09F
:10419000100241E80023002BF5D1202180F83E10C9
:1041A00000210163704701680C3151E8002F22F0B3
:1041B000C00241E80023002BF5D1202180F83D10FA
:1041C000704708B590F83E10222901D0022008BDA2
:1041D00082684FF480539A4201D1016921B1816A0A
:1041E0009A421BD04AB10AE00268816A5268C2F35F
:1041F00008020A80816A891C08E0026972B10268BB
:10420000526802F07F020A70816A491C8162C18D86
:10421000491E0904090CC18503D019E002685268DF
:10422000F1E70168CA6822F02002CA600168CA6822
:1042300022F48072CA6001684A6922F001024A6170
:10424000202180F83E10016B012903D0FFF700F810
:10425000002008BD0021016301680C3151E8002FE6
:1042600022F0100241E80023002BF5D101680A6812
:10427000D20602D50A6849680091818DFEF7C5FC17
:10428000E6E7000070B5044600680169E26821F4C1
:104290004051114301612169A068E26908436169E5
:1042A000114308432168CA6849F20C639A430243E8
:1042B000CA6020684169A26921F4407111434161DB
:1042C00031492068884202D03049884202D1FDF746
:1042D000A3FD01E0FDF790FDE269002319216425AB
:1042E0003226B2F5004F626828D0A0FB0101930F7F
:1042F0009200FCF729F80146B0FBF5F06FF01802C8
:10430000504301EB800006EB0010B0FBF5F000F02D
:10431000F002B1FBF5F002EB0012B1FBF5F06FF02B
:104320001803584301EB800006EB0010B0FBF5F0DA
:1043300000F00F0021681044886070BDA0FB0101EF
:1043400092185B41FCF700F80146B0FBF5F0020162
:10435000B1FBF5F06FF01803584301EB800006EB5A
:10436000C000B0FBF5F000F0F80002EB4002B1FB3A
:10437000F5F0584301EB800006EBC000B0FBF5F010
:1043800000F00700D6E700000010014000140140D3
:1043900038B58162828500251346044605642220D3
:1043A00084F83E00A26B1C48D063A26B1B481064CB
:1043B000A26B1B48D064A06B0A4605652168A06B00
:1043C000091DFDF72BF9206801684068009084F80A
:1043D0003C50206948B120680C3050E8001F41F47F
:1043E000807140E80012002AF5D12068143050E8AE
:1043F000001F41F0010140E80012002AF5D12068B9
:10440000143050E8001F41F0400140E80012002A3B
:10441000F5D1002038BD000071400008F3400008CD
:104420002740000810B50448FEF72AFCBDE81040FC
:10443000014800F021B900003005002010B5044803
:10444000FCF7CCFABDE810400148FEF719BC0000AB
:10445000740500200C4808B501680A684A68009293
:10446000CA6842F01002CA6001684A6942F040021C
:104470004A61122100910168044B806BA3F118027C
:10448000091DFCF737F908BD74050020300D002028
:104490002DE9F041044600885E4DC0F30A025E4FEC
:1044A0002A806078A178C00840EA4110C0F30A036E
:1044B0006B80A078E178800940EA81002179A2F53B
:1044C000806240EA8120C0F30A06AE8020796179DB
:1044D000400840EAC110C0F30A01E9806079A3F501
:1044E0008063C0F30110A8726079A6F58066800928
:1044F000E872E088A8812089E88160892882207B91
:10450000A874607BE874E089A882208A2A806B8086
:10451000AE80A1F58061E980A0F58060288100204F
:10452000215C3954401C0728FADD33213A4800F059
:1045300067F908203A18215C401C02F8081C0F2873
:10454000F8DD3421344800F05BF9207C3870607C61
:104550007870A07CB87031482F4EB0F90610B0F9D1
:104560001220243E1144B0F91E20B0F92A00104454
:1045700008444C2190FBF1F07080010AF970387109
:104580002748352190ED0E0ABDEEC00A10EE100A44
:10459000000A787110EE100AB8710020F8711E48F8
:1045A00000F02EF9A07B00F00101B18000F00201C3
:1045B000F18000F00401318100F00801718100F008
:1045C0004001B18100F08001F18100F010013182E1
:1045D00000F020007082A87C3070E87C7070A88A9F
:1045E00000F48071B18200F40071F18200F4806106
:1045F000318300F40061718300F48051B18300F4D1
:104600000051F18300F48041318400F40040708453
:10461000BDE8F081E60D00202C010020280B0020D1
:10462000BC09002010B50448FCF7E2F9BDE81040D1
:104630000148FEF725BB0000B80500200C4808B56E
:1046400001680A684A680092CA6842F01002CA60AB
:1046500001684A6942F040024A61C821009101683C
:10466000044B806BA3F1C802091DFCF743F808BD99
:10467000B8050020500C0020094A016882B0914220
:104680000BD1084909680A68D243D20605D40A68E2
:104690004968009102B0FEF7DBBD02B07047000030
:1046A000001001403005002070B52D4C2D4D88B014
:1046B00094F84900E87094F84A00A870B4F85F00D4
:1046C000E880B4F861002881B4F86C006881A06EBD
:1046D000E860D4F88A0000EE100AB5EEC00AF1EEE8
:1046E00010FA00D028616079012600092871042899
:1046F00009D1687838B91C4806701C4806706E707D
:104700001B48FDF7D9FFE97802204FF416720729FC
:1047100007D06B2909D02978012903D0022905D0B7
:104720000AE02E70B4F81B1002E02870B4F82B10C9
:1047300011B1914200D0687029798DF8181029784C
:104740008DF819101021009100210291CDE903107C
:10475000012306AA69460748FCF7C2F908B070BDF4
:10476000480D0020F4000020EC000020ED000020A7
:1047700058040020C4010020FEE7000030B50C46BC
:10478000050014D0022C12D90A48A11E028828461E
:10479000FCF770F92919C2B211F8023C9A4206D10D
:1047A00011F8011CB1EB102F01D1012030BD002008
:1047B00030BD00003401002030B50C4605000CD09F
:1047C000022C0AD9FF22611EFCF76AF9291911F897
:1047D000011C814201D1012030BD002030BD0907FC
:1047E000090E002804DB00F1E02080F80014704777
:1047F00000F00F0000F1E02080F8141D7047000069
:1048000000B587B002460091002102910391082172
:104810000491012369460248FCF762F907B000BD24
:10482000C40100200D49896B814207D100680168ED
:1048300041F4002101600A48FFF72ABE0949896B4B
:10484000814209D10068016841F4002101600648F5
:1048500001780648FEF7A0BD7047000074050020EF
:10486000180D0020B8050020F0000020880B002063
:104870000D49896B814207D10068016821F400214C
:1048800001600A48FFF704BE0949896B81420AD1D9
:104890000068016821F4002101600648017803489E
:1048A000E038FEF779BD704774050020300D002018
:1048B000B8050020F00000202DED028BFDF720F957
:1048C000FFF78AF9FEF7D4FEFEF77CFEFFF714F837
:1048D000FFF746F8FFF7AAF8FFF7DCF8FEF72EFE21
:1048E000FEF74EFEFFF7FCF8FFF734F9FFF714F977
:1048F000FEF78CFFFEF7AAFFFEF7CCFFFFF762F88A
:104900001C48FDF7D9FE00211B48FEF70FF90022D5
:1049100011461C20FDF784F9FBF768FEFBF790FEBB
:10492000FFF78CFEFFF796FD14480068C16841F060
:104930001001C160802212491048FEF773FC114C2F
:104940005A20B7EE008A2070AA20607106220D4915
:104950000A48FEF7FFFCD4F8010000EE100A30EE22
:10496000080A10EE100AC4F80100FF20FCF78EFEC2
:10497000ECE7000010040020E804002030050020CF
:1049800038010020030000200648416B096829B166
:10499000416BC968C9684968816270474FF0FF314F
:1049A000FAE700002800002038B5044600680168D6
:1049B00040680090204884421BD1A06B00680168C9
:1049C00021F001010160A06B01684A68062A06D146
:1049D0000968090301D5416C00E0C16B8847A16BF0
:1049E000182009684860A06B0068016841F0010167
:1049F0000160124884421DD1A06B0068016821F05B
:104A000001010160A06B01684A680D4BC2F1C80248
:104A10001A700968090301D5416C00E0C16B884731
:104A2000A16BC82009684860A06B0068016841F06C
:104A30000101016038BD000074050020B8050020A8
:104A4000F0000020D0E9013201699A60D0E9012329
:104A50005A604A68824201D182684A60002202613B
:104A60000868401E08600868704742684A6093689A
:104A70008B6093685960916008610168491C01600E
:104A8000704700001448016B11B10121C1617047EA
:104A90000021C1610169B1FA81F1C1F11F0101EB8E
:104AA00081020E4951F822306BB101EB820101F114
:104AB00008034A6852684A609A4201D152684A60C3
:104AC000D16801607047502080F31188BFF34F8F89
:104AD000BFF36F8FFEE7000028000020840800204D
:104AE0002DE9F0412F4C0026206B28B1A069401C15
:104AF000A0613046BDE8F081E5686D1CE56013D12A
:104B0000606B006838B1502080F31188BFF34F8F7D
:104B1000BFF36F8FFEE7606BA16B6163A063206AD8
:104B2000401C2062FFF730FFA06ADFF87C808542DE
:104B300009D3606B0068A0B1606BC068C768786813
:104B4000854211D2A0622068C06A00EB800158F84B
:104B50002100012800D90126E0690028C9D00126DA
:104B6000C7E74FF0FF30EDE7381DFFF76BFFB86A7E
:104B700018B107F11800FFF765FFF96A01202269F3
:104B800088401043206101EB810108EB8100391D51
:104B9000FFF76BFFF86A2168C96A8842C9D301260A
:104BA000C7E7000028000020840800204FF0407074
:104BB000E1EE100A704700061016000610160000FD
:104BC00000000000000001020304060708090000BD
:104BD000000001020304005EBCE2613FDD83C29C71
:104BE0007E20A3FD1F419DC3217FFCA2401E5F01CB
:104BF000E3BD3E6082DC237D9FC1421CFEA0E1BF7D
:104C00005D0380DE3C62BEE0025CDF81633D7C22AE
:104C1000C09E1D43A1FF4618FAA427799BC584DADC
:104C20003866E5BB5907DB856739BAE4065819478A
:104C3000A5FB7826C49A653BD987045AB8E6A7F93C
:104C40001B45C6987A24F8A6441A99C7257B3A646E
:104C500086D85B05E7B98CD2306EEDB3510F4E109C
:104C6000F2AC2F7193CD114FADF3702ECC92D38D4A
:104C70006F31B2EC0E50AFF1134DCE90722C6D33FC
:104C8000D18F0C52B0EE326C8ED0530DEFB1F0AE2E
:104C90004C1291CF2D73CA947628ABF5174908565C
:104CA000B4EA6937D58B5709EBB536688AD495CB0A
:104CB0002977F4AA4816E9B7550B88D6346A2B75BC
:104CC00097C94A14F6A8742AC896154BA9F7B6E8EE
:104CD0000A54D7896B350000891112239B32244670
:104CE000AD573665BF74488CC19D5AAFD3BE6CCAF0
:104CF000E5DB7EE9F7F88110080193331A22A55607
:104D00002C47B7753E64C99C408DDBBF52AEEDDACF
:104D100064CBFFF976E802218B30100299132667E5
:104D2000AF763444BD554AADC3BC588ED19F6EEBAF
:104D3000E7FA7CC8F5D983310A2091121803A777C6
:104D40002E66B5543C45CBBD42ACD99E508FEFFB8F
:104D500066EAFDD874C904428D5316619F70200421
:104D6000A9153227BB364CCEC5DF5EEDD7FC68886F
:104D7000E1997AABF3BA85520C4397711E60A11486
:104D80002805B3373A26CDDE44CFDFFD56ECE9984F
:104D90006089FBBB72AA06638F7214409D51222565
:104DA000AB343006B9174EEFC7FE5CCCD5DD6AA92F
:104DB000E3B8788AF19B87730E6295501C41A33546
:104DC0002A24B1163807CFFF46EEDDDC54CDEBB90F
:104DD00062A8F99A708B088481951AA793B62CC2A1
:104DE000A5D33EE1B7F04008C919522BDB3A644E17
:104DF000ED5F766DFF7C899400859BB712A6ADD2DE
:104E000024C3BFF136E0C1184809D33B5A2AE55EF6
:104E10006C4FF77D7E6C0AA583B4188691972EE3BC
:104E2000A7F23CC0B5D14229CB38500AD91B666FD6
:104E3000EF7E744CFD5D8BB502A499961087AFF39D
:104E400026E2BDD034C1C3394A28D11A580BE77FB6
:104E50006E6EF55C7C4D0CC685D71EE597F42880F8
:104E6000A1913AA3B3B2444ACD5B5669DF78600C96
:104E7000E91D722FFB3E8DD604C79FF516E4A9905D
:104E80002081BBB332A2C55A4C4BD7795E68E11C76
:104E9000680DF33F7A2E0EE787F61CC495D52AA13C
:104EA000A3B03882B193466BCF7A5448DD59622D56
:104EB000EB3C700EF91F8FF706E69DD414C5ABB11D
:104EC00022A0B9923083C77B4E6AD5585C49E33D36
:104ED0006A2CF11E780F0000F84E00080000002038
:104EE00038010000C40100081C4F000838010020F0
:104EF00028130000000200080317A50142019210C8
:104F0000034224F40418B400B4035F803F43F0412B
:0C4F1000323F0349204133FFFF00000046
:040000050800018965
:00000001FF
